{
  "contracts/SimpleVoting.sol": {
    "SimpleVoting": {
      "abi": [
        {
          "inputs": [
            {
              "internalType": "string[]",
              "name": "_candidates",
              "type": "string[]"
            }
          ],
          "stateMutability": "nonpayable",
          "type": "constructor"
        },
        {
          "inputs": [],
          "name": "NotCandidate",
          "type": "error"
        },
        {
          "anonymous": false,
          "inputs": [
            {
              "indexed": false,
              "internalType": "string",
              "name": "candidate",
              "type": "string"
            }
          ],
          "name": "Voted",
          "type": "event"
        },
        {
          "inputs": [
            {
              "internalType": "uint256",
              "name": "",
              "type": "uint256"
            }
          ],
          "name": "candidates",
          "outputs": [
            {
              "internalType": "string",
              "name": "",
              "type": "string"
            }
          ],
          "stateMutability": "view",
          "type": "function"
        },
        {
          "inputs": [
            {
              "internalType": "string",
              "name": "candidate",
              "type": "string"
            }
          ],
          "name": "vote",
          "outputs": [],
          "stateMutability": "nonpayable",
          "type": "function"
        },
        {
          "inputs": [
            {
              "internalType": "string",
              "name": "",
              "type": "string"
            }
          ],
          "name": "votes",
          "outputs": [
            {
              "internalType": "uint256",
              "name": "",
              "type": "uint256"
            }
          ],
          "stateMutability": "view",
          "type": "function"
        }
      ],
      "evm": {
        "bytecode": {
          "linkReferences": {},
          "object": "608060405234801561001057600080fd5b50604051610ea9380380610ea983398181016040528101906100329190610384565b806001908051906020019061004892919061004f565b50506106c0565b828054828255906000526020600020908101928215610097579160200282015b8281111561009657825182908161008691906105ee565b509160200191906001019061006f565b5b5090506100a491906100a8565b5090565b5b808211156100c857600081816100bf91906100cc565b506001016100a9565b5090565b5080546100d890610407565b6000825580601f106100ea5750610109565b601f016020900490600052602060002090810190610108919061010c565b5b50565b5b8082111561012557600081600090555060010161010d565b5090565b6000604051905090565b600080fd5b600080fd5b600080fd5b6000601f19601f8301169050919050565b7f4e487b7100000000000000000000000000000000000000000000000000000000600052604160045260246000fd5b61018b82610142565b810181811067ffffffffffffffff821117156101aa576101a9610153565b5b80604052505050565b60006101bd610129565b90506101c98282610182565b919050565b600067ffffffffffffffff8211156101e9576101e8610153565b5b602082029050602081019050919050565b600080fd5b600080fd5b600067ffffffffffffffff82111561021f5761021e610153565b5b61022882610142565b9050602081019050919050565b60005b83811015610253578082015181840152602081019050610238565b60008484015250505050565b600061027261026d84610204565b6101b3565b90508281526020810184848401111561028e5761028d6101ff565b5b610299848285610235565b509392505050565b600082601f8301126102b6576102b561013d565b5b81516102c684826020860161025f565b91505092915050565b60006102e26102dd846101ce565b6101b3565b90508083825260208201905060208402830185811115610305576103046101fa565b5b835b8181101561034c57805167ffffffffffffffff81111561032a5761032961013d565b5b80860161033789826102a1565b85526020850194505050602081019050610307565b5050509392505050565b600082601f83011261036b5761036a61013d565b5b815161037b8482602086016102cf565b91505092915050565b60006020828403121561039a57610399610133565b5b600082015167ffffffffffffffff8111156103b8576103b7610138565b5b6103c484828501610356565b91505092915050565b600081519050919050565b7f4e487b7100000000000000000000000000000000000000000000000000000000600052602260045260246000fd5b6000600282049050600182168061041f57607f821691505b602082108103610432576104316103d8565b5b50919050565b60008190508160005260206000209050919050565b60006020601f8301049050919050565b600082821b905092915050565b60006008830261049a7fffffffffffffffffffffffffffffffffffffffffffffffffffffffffffffffff8261045d565b6104a4868361045d565b95508019841693508086168417925050509392505050565b6000819050919050565b6000819050919050565b60006104eb6104e66104e1846104bc565b6104c6565b6104bc565b9050919050565b6000819050919050565b610505836104d0565b610519610511826104f2565b84845461046a565b825550505050565b600090565b61052e610521565b6105398184846104fc565b505050565b5b8181101561055d57610552600082610526565b60018101905061053f565b5050565b601f8211156105a25761057381610438565b61057c8461044d565b8101602085101561058b578190505b61059f6105978561044d565b83018261053e565b50505b505050565b600082821c905092915050565b60006105c5600019846008026105a7565b1980831691505092915050565b60006105de83836105b4565b9150826002028217905092915050565b6105f7826103cd565b67ffffffffffffffff8111156106105761060f610153565b5b61061a8254610407565b610625828285610561565b600060209050601f8311600181146106585760008415610646578287015190505b61065085826105d2565b8655506106b8565b601f19841661066686610438565b60005b8281101561068e57848901518255600182019150602085019450602081019050610669565b868310156106ab57848901516106a7601f8916826105b4565b8355505b6001600288020188555050505b505050505050565b6107da806106cf6000396000f3fe608060405234801561001057600080fd5b50600436106100415760003560e01c80633477ee2e14610046578063b99ef1fa14610076578063fc36e15b146100a6575b600080fd5b610060600480360381019061005b919061030a565b6100c2565b60405161006d91906103c7565b60405180910390f35b610090600480360381019061008b919061051e565b61016e565b60405161009d9190610576565b60405180910390f35b6100c060048036038101906100bb919061051e565b61019c565b005b600181815481106100d257600080fd5b9060005260206000200160009150905080546100ed906105c0565b80601f0160208091040260200160405190810160405280929190818152602001828054610119906105c0565b80156101665780601f1061013b57610100808354040283529160200191610166565b820191906000526020600020905b81548152906001019060200180831161014957829003601f168201915b505050505081565b6000818051602081018201805184825260208301602085012081835280955050505050506000915090505481565b6101a581610249565b6101db576040517f4f32a51b00000000000000000000000000000000000000000000000000000000815260040160405180910390fd5b6000816040516101eb919061062d565b9081526020016040518091039020600081548092919061020a90610673565b91905055507f38cb362e55241cdbab8a2f1105fb99fc7be1f0d6a865f97e688d6d5df0a036148160405161023e91906103c7565b60405180910390a150565b600080600090505b6001805490508110156102b55782805190602001206001828154811061027a576102796106bb565b5b90600052602060002001604051610291919061078d565b6040518091039020036102a85760019150506102bb565b8080600101915050610251565b50600090505b919050565b6000604051905090565b600080fd5b600080fd5b6000819050919050565b6102e7816102d4565b81146102f257600080fd5b50565b600081359050610304816102de565b92915050565b6000602082840312156103205761031f6102ca565b5b600061032e848285016102f5565b91505092915050565b600081519050919050565b600082825260208201905092915050565b60005b83811015610371578082015181840152602081019050610356565b60008484015250505050565b6000601f19601f8301169050919050565b600061039982610337565b6103a38185610342565b93506103b3818560208601610353565b6103bc8161037d565b840191505092915050565b600060208201905081810360008301526103e1818461038e565b905092915050565b600080fd5b600080fd5b7f4e487b7100000000000000000000000000000000000000000000000000000000600052604160045260246000fd5b61042b8261037d565b810181811067ffffffffffffffff8211171561044a576104496103f3565b5b80604052505050565b600061045d6102c0565b90506104698282610422565b919050565b600067ffffffffffffffff821115610489576104886103f3565b5b6104928261037d565b9050602081019050919050565b82818337600083830152505050565b60006104c16104bc8461046e565b610453565b9050828152602081018484840111156104dd576104dc6103ee565b5b6104e884828561049f565b509392505050565b600082601f830112610505576105046103e9565b5b81356105158482602086016104ae565b91505092915050565b600060208284031215610534576105336102ca565b5b600082013567ffffffffffffffff811115610552576105516102cf565b5b61055e848285016104f0565b91505092915050565b610570816102d4565b82525050565b600060208201905061058b6000830184610567565b92915050565b7f4e487b7100000000000000000000000000000000000000000000000000000000600052602260045260246000fd5b600060028204905060018216806105d857607f821691505b6020821081036105eb576105ea610591565b5b50919050565b600081905092915050565b600061060782610337565b61061181856105f1565b9350610621818560208601610353565b80840191505092915050565b600061063982846105fc565b915081905092915050565b7f4e487b7100000000000000000000000000000000000000000000000000000000600052601160045260246000fd5b600061067e826102d4565b91507fffffffffffffffffffffffffffffffffffffffffffffffffffffffffffffffff82036106b0576106af610644565b5b600182019050919050565b7f4e487b7100000000000000000000000000000000000000000000000000000000600052603260045260246000fd5b600081905092915050565b60008190508160005260206000209050919050565b60008154610717816105c0565b61072181866106ea565b9450600182166000811461073c576001811461075157610784565b60ff1983168652811515820286019350610784565b61075a856106f5565b60005b8381101561077c5781548189015260018201915060208101905061075d565b838801955050505b50505092915050565b6000610799828461070a565b91508190509291505056fea26469706673582212201ca35e04b6771e0c8834c07765b0ee6af9341af46144b7168451b52c8e9274e064736f6c634300081c0033",
          "opcodes": "PUSH1 0x80 PUSH1 0x40 MSTORE CALLVALUE DUP1 ISZERO PUSH2 0x10 JUMPI PUSH1 0x0 DUP1 REVERT JUMPDEST POP PUSH1 0x40 MLOAD PUSH2 0xEA9 CODESIZE SUB DUP1 PUSH2 0xEA9 DUP4 CODECOPY DUP2 DUP2 ADD PUSH1 0x40 MSTORE DUP2 ADD SWAP1 PUSH2 0x32 SWAP2 SWAP1 PUSH2 0x384 JUMP JUMPDEST DUP1 PUSH1 0x1 SWAP1 DUP1 MLOAD SWAP1 PUSH1 0x20 ADD SWAP1 PUSH2 0x48 SWAP3 SWAP2 SWAP1 PUSH2 0x4F JUMP JUMPDEST POP POP PUSH2 0x6C0 JUMP JUMPDEST DUP3 DUP1 SLOAD DUP3 DUP3 SSTORE SWAP1 PUSH1 0x0 MSTORE PUSH1 0x20 PUSH1 0x0 KECCAK256 SWAP1 DUP2 ADD SWAP3 DUP3 ISZERO PUSH2 0x97 JUMPI SWAP2 PUSH1 0x20 MUL DUP3 ADD JUMPDEST DUP3 DUP2 GT ISZERO PUSH2 0x96 JUMPI DUP3 MLOAD DUP3 SWAP1 DUP2 PUSH2 0x86 SWAP2 SWAP1 PUSH2 0x5EE JUMP JUMPDEST POP SWAP2 PUSH1 0x20 ADD SWAP2 SWAP1 PUSH1 0x1 ADD SWAP1 PUSH2 0x6F JUMP JUMPDEST JUMPDEST POP SWAP1 POP PUSH2 0xA4 SWAP2 SWAP1 PUSH2 0xA8 JUMP JUMPDEST POP SWAP1 JUMP JUMPDEST JUMPDEST DUP1 DUP3 GT ISZERO PUSH2 0xC8 JUMPI PUSH1 0x0 DUP2 DUP2 PUSH2 0xBF SWAP2 SWAP1 PUSH2 0xCC JUMP JUMPDEST POP PUSH1 0x1 ADD PUSH2 0xA9 JUMP JUMPDEST POP SWAP1 JUMP JUMPDEST POP DUP1 SLOAD PUSH2 0xD8 SWAP1 PUSH2 0x407 JUMP JUMPDEST PUSH1 0x0 DUP3 SSTORE DUP1 PUSH1 0x1F LT PUSH2 0xEA JUMPI POP PUSH2 0x109 JUMP JUMPDEST PUSH1 0x1F ADD PUSH1 0x20 SWAP1 DIV SWAP1 PUSH1 0x0 MSTORE PUSH1 0x20 PUSH1 0x0 KECCAK256 SWAP1 DUP2 ADD SWAP1 PUSH2 0x108 SWAP2 SWAP1 PUSH2 0x10C JUMP JUMPDEST JUMPDEST POP JUMP JUMPDEST JUMPDEST DUP1 DUP3 GT ISZERO PUSH2 0x125 JUMPI PUSH1 0x0 DUP2 PUSH1 0x0 SWAP1 SSTORE POP PUSH1 0x1 ADD PUSH2 0x10D JUMP JUMPDEST POP SWAP1 JUMP JUMPDEST PUSH1 0x0 PUSH1 0x40 MLOAD SWAP1 POP SWAP1 JUMP JUMPDEST PUSH1 0x0 DUP1 REVERT JUMPDEST PUSH1 0x0 DUP1 REVERT JUMPDEST PUSH1 0x0 DUP1 REVERT JUMPDEST PUSH1 0x0 PUSH1 0x1F NOT PUSH1 0x1F DUP4 ADD AND SWAP1 POP SWAP2 SWAP1 POP JUMP JUMPDEST PUSH32 0x4E487B7100000000000000000000000000000000000000000000000000000000 PUSH1 0x0 MSTORE PUSH1 0x41 PUSH1 0x4 MSTORE PUSH1 0x24 PUSH1 0x0 REVERT JUMPDEST PUSH2 0x18B DUP3 PUSH2 0x142 JUMP JUMPDEST DUP2 ADD DUP2 DUP2 LT PUSH8 0xFFFFFFFFFFFFFFFF DUP3 GT OR ISZERO PUSH2 0x1AA JUMPI PUSH2 0x1A9 PUSH2 0x153 JUMP JUMPDEST JUMPDEST DUP1 PUSH1 0x40 MSTORE POP POP POP JUMP JUMPDEST PUSH1 0x0 PUSH2 0x1BD PUSH2 0x129 JUMP JUMPDEST SWAP1 POP PUSH2 0x1C9 DUP3 DUP3 PUSH2 0x182 JUMP JUMPDEST SWAP2 SWAP1 POP JUMP JUMPDEST PUSH1 0x0 PUSH8 0xFFFFFFFFFFFFFFFF DUP3 GT ISZERO PUSH2 0x1E9 JUMPI PUSH2 0x1E8 PUSH2 0x153 JUMP JUMPDEST JUMPDEST PUSH1 0x20 DUP3 MUL SWAP1 POP PUSH1 0x20 DUP2 ADD SWAP1 POP SWAP2 SWAP1 POP JUMP JUMPDEST PUSH1 0x0 DUP1 REVERT JUMPDEST PUSH1 0x0 DUP1 REVERT JUMPDEST PUSH1 0x0 PUSH8 0xFFFFFFFFFFFFFFFF DUP3 GT ISZERO PUSH2 0x21F JUMPI PUSH2 0x21E PUSH2 0x153 JUMP JUMPDEST JUMPDEST PUSH2 0x228 DUP3 PUSH2 0x142 JUMP JUMPDEST SWAP1 POP PUSH1 0x20 DUP2 ADD SWAP1 POP SWAP2 SWAP1 POP JUMP JUMPDEST PUSH1 0x0 JUMPDEST DUP4 DUP2 LT ISZERO PUSH2 0x253 JUMPI DUP1 DUP3 ADD MLOAD DUP2 DUP5 ADD MSTORE PUSH1 0x20 DUP2 ADD SWAP1 POP PUSH2 0x238 JUMP JUMPDEST PUSH1 0x0 DUP5 DUP5 ADD MSTORE POP POP POP POP JUMP JUMPDEST PUSH1 0x0 PUSH2 0x272 PUSH2 0x26D DUP5 PUSH2 0x204 JUMP JUMPDEST PUSH2 0x1B3 JUMP JUMPDEST SWAP1 POP DUP3 DUP2 MSTORE PUSH1 0x20 DUP2 ADD DUP5 DUP5 DUP5 ADD GT ISZERO PUSH2 0x28E JUMPI PUSH2 0x28D PUSH2 0x1FF JUMP JUMPDEST JUMPDEST PUSH2 0x299 DUP5 DUP3 DUP6 PUSH2 0x235 JUMP JUMPDEST POP SWAP4 SWAP3 POP POP POP JUMP JUMPDEST PUSH1 0x0 DUP3 PUSH1 0x1F DUP4 ADD SLT PUSH2 0x2B6 JUMPI PUSH2 0x2B5 PUSH2 0x13D JUMP JUMPDEST JUMPDEST DUP2 MLOAD PUSH2 0x2C6 DUP5 DUP3 PUSH1 0x20 DUP7 ADD PUSH2 0x25F JUMP JUMPDEST SWAP2 POP POP SWAP3 SWAP2 POP POP JUMP JUMPDEST PUSH1 0x0 PUSH2 0x2E2 PUSH2 0x2DD DUP5 PUSH2 0x1CE JUMP JUMPDEST PUSH2 0x1B3 JUMP JUMPDEST SWAP1 POP DUP1 DUP4 DUP3 MSTORE PUSH1 0x20 DUP3 ADD SWAP1 POP PUSH1 0x20 DUP5 MUL DUP4 ADD DUP6 DUP2 GT ISZERO PUSH2 0x305 JUMPI PUSH2 0x304 PUSH2 0x1FA JUMP JUMPDEST JUMPDEST DUP4 JUMPDEST DUP2 DUP2 LT ISZERO PUSH2 0x34C JUMPI DUP1 MLOAD PUSH8 0xFFFFFFFFFFFFFFFF DUP2 GT ISZERO PUSH2 0x32A JUMPI PUSH2 0x329 PUSH2 0x13D JUMP JUMPDEST JUMPDEST DUP1 DUP7 ADD PUSH2 0x337 DUP10 DUP3 PUSH2 0x2A1 JUMP JUMPDEST DUP6 MSTORE PUSH1 0x20 DUP6 ADD SWAP5 POP POP POP PUSH1 0x20 DUP2 ADD SWAP1 POP PUSH2 0x307 JUMP JUMPDEST POP POP POP SWAP4 SWAP3 POP POP POP JUMP JUMPDEST PUSH1 0x0 DUP3 PUSH1 0x1F DUP4 ADD SLT PUSH2 0x36B JUMPI PUSH2 0x36A PUSH2 0x13D JUMP JUMPDEST JUMPDEST DUP2 MLOAD PUSH2 0x37B DUP5 DUP3 PUSH1 0x20 DUP7 ADD PUSH2 0x2CF JUMP JUMPDEST SWAP2 POP POP SWAP3 SWAP2 POP POP JUMP JUMPDEST PUSH1 0x0 PUSH1 0x20 DUP3 DUP5 SUB SLT ISZERO PUSH2 0x39A JUMPI PUSH2 0x399 PUSH2 0x133 JUMP JUMPDEST JUMPDEST PUSH1 0x0 DUP3 ADD MLOAD PUSH8 0xFFFFFFFFFFFFFFFF DUP2 GT ISZERO PUSH2 0x3B8 JUMPI PUSH2 0x3B7 PUSH2 0x138 JUMP JUMPDEST JUMPDEST PUSH2 0x3C4 DUP5 DUP3 DUP6 ADD PUSH2 0x356 JUMP JUMPDEST SWAP2 POP POP SWAP3 SWAP2 POP POP JUMP JUMPDEST PUSH1 0x0 DUP2 MLOAD SWAP1 POP SWAP2 SWAP1 POP JUMP JUMPDEST PUSH32 0x4E487B7100000000000000000000000000000000000000000000000000000000 PUSH1 0x0 MSTORE PUSH1 0x22 PUSH1 0x4 MSTORE PUSH1 0x24 PUSH1 0x0 REVERT JUMPDEST PUSH1 0x0 PUSH1 0x2 DUP3 DIV SWAP1 POP PUSH1 0x1 DUP3 AND DUP1 PUSH2 0x41F JUMPI PUSH1 0x7F DUP3 AND SWAP2 POP JUMPDEST PUSH1 0x20 DUP3 LT DUP2 SUB PUSH2 0x432 JUMPI PUSH2 0x431 PUSH2 0x3D8 JUMP JUMPDEST JUMPDEST POP SWAP2 SWAP1 POP JUMP JUMPDEST PUSH1 0x0 DUP2 SWAP1 POP DUP2 PUSH1 0x0 MSTORE PUSH1 0x20 PUSH1 0x0 KECCAK256 SWAP1 POP SWAP2 SWAP1 POP JUMP JUMPDEST PUSH1 0x0 PUSH1 0x20 PUSH1 0x1F DUP4 ADD DIV SWAP1 POP SWAP2 SWAP1 POP JUMP JUMPDEST PUSH1 0x0 DUP3 DUP3 SHL SWAP1 POP SWAP3 SWAP2 POP POP JUMP JUMPDEST PUSH1 0x0 PUSH1 0x8 DUP4 MUL PUSH2 0x49A PUSH32 0xFFFFFFFFFFFFFFFFFFFFFFFFFFFFFFFFFFFFFFFFFFFFFFFFFFFFFFFFFFFFFFFF DUP3 PUSH2 0x45D JUMP JUMPDEST PUSH2 0x4A4 DUP7 DUP4 PUSH2 0x45D JUMP JUMPDEST SWAP6 POP DUP1 NOT DUP5 AND SWAP4 POP DUP1 DUP7 AND DUP5 OR SWAP3 POP POP POP SWAP4 SWAP3 POP POP POP JUMP JUMPDEST PUSH1 0x0 DUP2 SWAP1 POP SWAP2 SWAP1 POP JUMP JUMPDEST PUSH1 0x0 DUP2 SWAP1 POP SWAP2 SWAP1 POP JUMP JUMPDEST PUSH1 0x0 PUSH2 0x4EB PUSH2 0x4E6 PUSH2 0x4E1 DUP5 PUSH2 0x4BC JUMP JUMPDEST PUSH2 0x4C6 JUMP JUMPDEST PUSH2 0x4BC JUMP JUMPDEST SWAP1 POP SWAP2 SWAP1 POP JUMP JUMPDEST PUSH1 0x0 DUP2 SWAP1 POP SWAP2 SWAP1 POP JUMP JUMPDEST PUSH2 0x505 DUP4 PUSH2 0x4D0 JUMP JUMPDEST PUSH2 0x519 PUSH2 0x511 DUP3 PUSH2 0x4F2 JUMP JUMPDEST DUP5 DUP5 SLOAD PUSH2 0x46A JUMP JUMPDEST DUP3 SSTORE POP POP POP POP JUMP JUMPDEST PUSH1 0x0 SWAP1 JUMP JUMPDEST PUSH2 0x52E PUSH2 0x521 JUMP JUMPDEST PUSH2 0x539 DUP2 DUP5 DUP5 PUSH2 0x4FC JUMP JUMPDEST POP POP POP JUMP JUMPDEST JUMPDEST DUP2 DUP2 LT ISZERO PUSH2 0x55D JUMPI PUSH2 0x552 PUSH1 0x0 DUP3 PUSH2 0x526 JUMP JUMPDEST PUSH1 0x1 DUP2 ADD SWAP1 POP PUSH2 0x53F JUMP JUMPDEST POP POP JUMP JUMPDEST PUSH1 0x1F DUP3 GT ISZERO PUSH2 0x5A2 JUMPI PUSH2 0x573 DUP2 PUSH2 0x438 JUMP JUMPDEST PUSH2 0x57C DUP5 PUSH2 0x44D JUMP JUMPDEST DUP2 ADD PUSH1 0x20 DUP6 LT ISZERO PUSH2 0x58B JUMPI DUP2 SWAP1 POP JUMPDEST PUSH2 0x59F PUSH2 0x597 DUP6 PUSH2 0x44D JUMP JUMPDEST DUP4 ADD DUP3 PUSH2 0x53E JUMP JUMPDEST POP POP JUMPDEST POP POP POP JUMP JUMPDEST PUSH1 0x0 DUP3 DUP3 SHR SWAP1 POP SWAP3 SWAP2 POP POP JUMP JUMPDEST PUSH1 0x0 PUSH2 0x5C5 PUSH1 0x0 NOT DUP5 PUSH1 0x8 MUL PUSH2 0x5A7 JUMP JUMPDEST NOT DUP1 DUP4 AND SWAP2 POP POP SWAP3 SWAP2 POP POP JUMP JUMPDEST PUSH1 0x0 PUSH2 0x5DE DUP4 DUP4 PUSH2 0x5B4 JUMP JUMPDEST SWAP2 POP DUP3 PUSH1 0x2 MUL DUP3 OR SWAP1 POP SWAP3 SWAP2 POP POP JUMP JUMPDEST PUSH2 0x5F7 DUP3 PUSH2 0x3CD JUMP JUMPDEST PUSH8 0xFFFFFFFFFFFFFFFF DUP2 GT ISZERO PUSH2 0x610 JUMPI PUSH2 0x60F PUSH2 0x153 JUMP JUMPDEST JUMPDEST PUSH2 0x61A DUP3 SLOAD PUSH2 0x407 JUMP JUMPDEST PUSH2 0x625 DUP3 DUP3 DUP6 PUSH2 0x561 JUMP JUMPDEST PUSH1 0x0 PUSH1 0x20 SWAP1 POP PUSH1 0x1F DUP4 GT PUSH1 0x1 DUP2 EQ PUSH2 0x658 JUMPI PUSH1 0x0 DUP5 ISZERO PUSH2 0x646 JUMPI DUP3 DUP8 ADD MLOAD SWAP1 POP JUMPDEST PUSH2 0x650 DUP6 DUP3 PUSH2 0x5D2 JUMP JUMPDEST DUP7 SSTORE POP PUSH2 0x6B8 JUMP JUMPDEST PUSH1 0x1F NOT DUP5 AND PUSH2 0x666 DUP7 PUSH2 0x438 JUMP JUMPDEST PUSH1 0x0 JUMPDEST DUP3 DUP2 LT ISZERO PUSH2 0x68E JUMPI DUP5 DUP10 ADD MLOAD DUP3 SSTORE PUSH1 0x1 DUP3 ADD SWAP2 POP PUSH1 0x20 DUP6 ADD SWAP5 POP PUSH1 0x20 DUP2 ADD SWAP1 POP PUSH2 0x669 JUMP JUMPDEST DUP7 DUP4 LT ISZERO PUSH2 0x6AB JUMPI DUP5 DUP10 ADD MLOAD PUSH2 0x6A7 PUSH1 0x1F DUP10 AND DUP3 PUSH2 0x5B4 JUMP JUMPDEST DUP4 SSTORE POP JUMPDEST PUSH1 0x1 PUSH1 0x2 DUP9 MUL ADD DUP9 SSTORE POP POP POP JUMPDEST POP POP POP POP POP POP JUMP JUMPDEST PUSH2 0x7DA DUP1 PUSH2 0x6CF PUSH1 0x0 CODECOPY PUSH1 0x0 RETURN INVALID PUSH1 0x80 PUSH1 0x40 MSTORE CALLVALUE DUP1 ISZERO PUSH2 0x10 JUMPI PUSH1 0x0 DUP1 REVERT JUMPDEST POP PUSH1 0x4 CALLDATASIZE LT PUSH2 0x41 JUMPI PUSH1 0x0 CALLDATALOAD PUSH1 0xE0 SHR DUP1 PUSH4 0x3477EE2E EQ PUSH2 0x46 JUMPI DUP1 PUSH4 0xB99EF1FA EQ PUSH2 0x76 JUMPI DUP1 PUSH4 0xFC36E15B EQ PUSH2 0xA6 JUMPI JUMPDEST PUSH1 0x0 DUP1 REVERT JUMPDEST PUSH2 0x60 PUSH1 0x4 DUP1 CALLDATASIZE SUB DUP2 ADD SWAP1 PUSH2 0x5B SWAP2 SWAP1 PUSH2 0x30A JUMP JUMPDEST PUSH2 0xC2 JUMP JUMPDEST PUSH1 0x40 MLOAD PUSH2 0x6D SWAP2 SWAP1 PUSH2 0x3C7 JUMP JUMPDEST PUSH1 0x40 MLOAD DUP1 SWAP2 SUB SWAP1 RETURN JUMPDEST PUSH2 0x90 PUSH1 0x4 DUP1 CALLDATASIZE SUB DUP2 ADD SWAP1 PUSH2 0x8B SWAP2 SWAP1 PUSH2 0x51E JUMP JUMPDEST PUSH2 0x16E JUMP JUMPDEST PUSH1 0x40 MLOAD PUSH2 0x9D SWAP2 SWAP1 PUSH2 0x576 JUMP JUMPDEST PUSH1 0x40 MLOAD DUP1 SWAP2 SUB SWAP1 RETURN JUMPDEST PUSH2 0xC0 PUSH1 0x4 DUP1 CALLDATASIZE SUB DUP2 ADD SWAP1 PUSH2 0xBB SWAP2 SWAP1 PUSH2 0x51E JUMP JUMPDEST PUSH2 0x19C JUMP JUMPDEST STOP JUMPDEST PUSH1 0x1 DUP2 DUP2 SLOAD DUP2 LT PUSH2 0xD2 JUMPI PUSH1 0x0 DUP1 REVERT JUMPDEST SWAP1 PUSH1 0x0 MSTORE PUSH1 0x20 PUSH1 0x0 KECCAK256 ADD PUSH1 0x0 SWAP2 POP SWAP1 POP DUP1 SLOAD PUSH2 0xED SWAP1 PUSH2 0x5C0 JUMP JUMPDEST DUP1 PUSH1 0x1F ADD PUSH1 0x20 DUP1 SWAP2 DIV MUL PUSH1 0x20 ADD PUSH1 0x40 MLOAD SWAP1 DUP2 ADD PUSH1 0x40 MSTORE DUP1 SWAP3 SWAP2 SWAP1 DUP2 DUP2 MSTORE PUSH1 0x20 ADD DUP3 DUP1 SLOAD PUSH2 0x119 SWAP1 PUSH2 0x5C0 JUMP JUMPDEST DUP1 ISZERO PUSH2 0x166 JUMPI DUP1 PUSH1 0x1F LT PUSH2 0x13B JUMPI PUSH2 0x100 DUP1 DUP4 SLOAD DIV MUL DUP4 MSTORE SWAP2 PUSH1 0x20 ADD SWAP2 PUSH2 0x166 JUMP JUMPDEST DUP3 ADD SWAP2 SWAP1 PUSH1 0x0 MSTORE PUSH1 0x20 PUSH1 0x0 KECCAK256 SWAP1 JUMPDEST DUP2 SLOAD DUP2 MSTORE SWAP1 PUSH1 0x1 ADD SWAP1 PUSH1 0x20 ADD DUP1 DUP4 GT PUSH2 0x149 JUMPI DUP3 SWAP1 SUB PUSH1 0x1F AND DUP3 ADD SWAP2 JUMPDEST POP POP POP POP POP DUP2 JUMP JUMPDEST PUSH1 0x0 DUP2 DUP1 MLOAD PUSH1 0x20 DUP2 ADD DUP3 ADD DUP1 MLOAD DUP5 DUP3 MSTORE PUSH1 0x20 DUP4 ADD PUSH1 0x20 DUP6 ADD KECCAK256 DUP2 DUP4 MSTORE DUP1 SWAP6 POP POP POP POP POP POP PUSH1 0x0 SWAP2 POP SWAP1 POP SLOAD DUP2 JUMP JUMPDEST PUSH2 0x1A5 DUP2 PUSH2 0x249 JUMP JUMPDEST PUSH2 0x1DB JUMPI PUSH1 0x40 MLOAD PUSH32 0x4F32A51B00000000000000000000000000000000000000000000000000000000 DUP2 MSTORE PUSH1 0x4 ADD PUSH1 0x40 MLOAD DUP1 SWAP2 SUB SWAP1 REVERT JUMPDEST PUSH1 0x0 DUP2 PUSH1 0x40 MLOAD PUSH2 0x1EB SWAP2 SWAP1 PUSH2 0x62D JUMP JUMPDEST SWAP1 DUP2 MSTORE PUSH1 0x20 ADD PUSH1 0x40 MLOAD DUP1 SWAP2 SUB SWAP1 KECCAK256 PUSH1 0x0 DUP2 SLOAD DUP1 SWAP3 SWAP2 SWAP1 PUSH2 0x20A SWAP1 PUSH2 0x673 JUMP JUMPDEST SWAP2 SWAP1 POP SSTORE POP PUSH32 0x38CB362E55241CDBAB8A2F1105FB99FC7BE1F0D6A865F97E688D6D5DF0A03614 DUP2 PUSH1 0x40 MLOAD PUSH2 0x23E SWAP2 SWAP1 PUSH2 0x3C7 JUMP JUMPDEST PUSH1 0x40 MLOAD DUP1 SWAP2 SUB SWAP1 LOG1 POP JUMP JUMPDEST PUSH1 0x0 DUP1 PUSH1 0x0 SWAP1 POP JUMPDEST PUSH1 0x1 DUP1 SLOAD SWAP1 POP DUP2 LT ISZERO PUSH2 0x2B5 JUMPI DUP3 DUP1 MLOAD SWAP1 PUSH1 0x20 ADD KECCAK256 PUSH1 0x1 DUP3 DUP2 SLOAD DUP2 LT PUSH2 0x27A JUMPI PUSH2 0x279 PUSH2 0x6BB JUMP JUMPDEST JUMPDEST SWAP1 PUSH1 0x0 MSTORE PUSH1 0x20 PUSH1 0x0 KECCAK256 ADD PUSH1 0x40 MLOAD PUSH2 0x291 SWAP2 SWAP1 PUSH2 0x78D JUMP JUMPDEST PUSH1 0x40 MLOAD DUP1 SWAP2 SUB SWAP1 KECCAK256 SUB PUSH2 0x2A8 JUMPI PUSH1 0x1 SWAP2 POP POP PUSH2 0x2BB JUMP JUMPDEST DUP1 DUP1 PUSH1 0x1 ADD SWAP2 POP POP PUSH2 0x251 JUMP JUMPDEST POP PUSH1 0x0 SWAP1 POP JUMPDEST SWAP2 SWAP1 POP JUMP JUMPDEST PUSH1 0x0 PUSH1 0x40 MLOAD SWAP1 POP SWAP1 JUMP JUMPDEST PUSH1 0x0 DUP1 REVERT JUMPDEST PUSH1 0x0 DUP1 REVERT JUMPDEST PUSH1 0x0 DUP2 SWAP1 POP SWAP2 SWAP1 POP JUMP JUMPDEST PUSH2 0x2E7 DUP2 PUSH2 0x2D4 JUMP JUMPDEST DUP2 EQ PUSH2 0x2F2 JUMPI PUSH1 0x0 DUP1 REVERT JUMPDEST POP JUMP JUMPDEST PUSH1 0x0 DUP2 CALLDATALOAD SWAP1 POP PUSH2 0x304 DUP2 PUSH2 0x2DE JUMP JUMPDEST SWAP3 SWAP2 POP POP JUMP JUMPDEST PUSH1 0x0 PUSH1 0x20 DUP3 DUP5 SUB SLT ISZERO PUSH2 0x320 JUMPI PUSH2 0x31F PUSH2 0x2CA JUMP JUMPDEST JUMPDEST PUSH1 0x0 PUSH2 0x32E DUP5 DUP3 DUP6 ADD PUSH2 0x2F5 JUMP JUMPDEST SWAP2 POP POP SWAP3 SWAP2 POP POP JUMP JUMPDEST PUSH1 0x0 DUP2 MLOAD SWAP1 POP SWAP2 SWAP1 POP JUMP JUMPDEST PUSH1 0x0 DUP3 DUP3 MSTORE PUSH1 0x20 DUP3 ADD SWAP1 POP SWAP3 SWAP2 POP POP JUMP JUMPDEST PUSH1 0x0 JUMPDEST DUP4 DUP2 LT ISZERO PUSH2 0x371 JUMPI DUP1 DUP3 ADD MLOAD DUP2 DUP5 ADD MSTORE PUSH1 0x20 DUP2 ADD SWAP1 POP PUSH2 0x356 JUMP JUMPDEST PUSH1 0x0 DUP5 DUP5 ADD MSTORE POP POP POP POP JUMP JUMPDEST PUSH1 0x0 PUSH1 0x1F NOT PUSH1 0x1F DUP4 ADD AND SWAP1 POP SWAP2 SWAP1 POP JUMP JUMPDEST PUSH1 0x0 PUSH2 0x399 DUP3 PUSH2 0x337 JUMP JUMPDEST PUSH2 0x3A3 DUP2 DUP6 PUSH2 0x342 JUMP JUMPDEST SWAP4 POP PUSH2 0x3B3 DUP2 DUP6 PUSH1 0x20 DUP7 ADD PUSH2 0x353 JUMP JUMPDEST PUSH2 0x3BC DUP2 PUSH2 0x37D JUMP JUMPDEST DUP5 ADD SWAP2 POP POP SWAP3 SWAP2 POP POP JUMP JUMPDEST PUSH1 0x0 PUSH1 0x20 DUP3 ADD SWAP1 POP DUP2 DUP2 SUB PUSH1 0x0 DUP4 ADD MSTORE PUSH2 0x3E1 DUP2 DUP5 PUSH2 0x38E JUMP JUMPDEST SWAP1 POP SWAP3 SWAP2 POP POP JUMP JUMPDEST PUSH1 0x0 DUP1 REVERT JUMPDEST PUSH1 0x0 DUP1 REVERT JUMPDEST PUSH32 0x4E487B7100000000000000000000000000000000000000000000000000000000 PUSH1 0x0 MSTORE PUSH1 0x41 PUSH1 0x4 MSTORE PUSH1 0x24 PUSH1 0x0 REVERT JUMPDEST PUSH2 0x42B DUP3 PUSH2 0x37D JUMP JUMPDEST DUP2 ADD DUP2 DUP2 LT PUSH8 0xFFFFFFFFFFFFFFFF DUP3 GT OR ISZERO PUSH2 0x44A JUMPI PUSH2 0x449 PUSH2 0x3F3 JUMP JUMPDEST JUMPDEST DUP1 PUSH1 0x40 MSTORE POP POP POP JUMP JUMPDEST PUSH1 0x0 PUSH2 0x45D PUSH2 0x2C0 JUMP JUMPDEST SWAP1 POP PUSH2 0x469 DUP3 DUP3 PUSH2 0x422 JUMP JUMPDEST SWAP2 SWAP1 POP JUMP JUMPDEST PUSH1 0x0 PUSH8 0xFFFFFFFFFFFFFFFF DUP3 GT ISZERO PUSH2 0x489 JUMPI PUSH2 0x488 PUSH2 0x3F3 JUMP JUMPDEST JUMPDEST PUSH2 0x492 DUP3 PUSH2 0x37D JUMP JUMPDEST SWAP1 POP PUSH1 0x20 DUP2 ADD SWAP1 POP SWAP2 SWAP1 POP JUMP JUMPDEST DUP3 DUP2 DUP4 CALLDATACOPY PUSH1 0x0 DUP4 DUP4 ADD MSTORE POP POP POP JUMP JUMPDEST PUSH1 0x0 PUSH2 0x4C1 PUSH2 0x4BC DUP5 PUSH2 0x46E JUMP JUMPDEST PUSH2 0x453 JUMP JUMPDEST SWAP1 POP DUP3 DUP2 MSTORE PUSH1 0x20 DUP2 ADD DUP5 DUP5 DUP5 ADD GT ISZERO PUSH2 0x4DD JUMPI PUSH2 0x4DC PUSH2 0x3EE JUMP JUMPDEST JUMPDEST PUSH2 0x4E8 DUP5 DUP3 DUP6 PUSH2 0x49F JUMP JUMPDEST POP SWAP4 SWAP3 POP POP POP JUMP JUMPDEST PUSH1 0x0 DUP3 PUSH1 0x1F DUP4 ADD SLT PUSH2 0x505 JUMPI PUSH2 0x504 PUSH2 0x3E9 JUMP JUMPDEST JUMPDEST DUP2 CALLDATALOAD PUSH2 0x515 DUP5 DUP3 PUSH1 0x20 DUP7 ADD PUSH2 0x4AE JUMP JUMPDEST SWAP2 POP POP SWAP3 SWAP2 POP POP JUMP JUMPDEST PUSH1 0x0 PUSH1 0x20 DUP3 DUP5 SUB SLT ISZERO PUSH2 0x534 JUMPI PUSH2 0x533 PUSH2 0x2CA JUMP JUMPDEST JUMPDEST PUSH1 0x0 DUP3 ADD CALLDATALOAD PUSH8 0xFFFFFFFFFFFFFFFF DUP2 GT ISZERO PUSH2 0x552 JUMPI PUSH2 0x551 PUSH2 0x2CF JUMP JUMPDEST JUMPDEST PUSH2 0x55E DUP5 DUP3 DUP6 ADD PUSH2 0x4F0 JUMP JUMPDEST SWAP2 POP POP SWAP3 SWAP2 POP POP JUMP JUMPDEST PUSH2 0x570 DUP2 PUSH2 0x2D4 JUMP JUMPDEST DUP3 MSTORE POP POP JUMP JUMPDEST PUSH1 0x0 PUSH1 0x20 DUP3 ADD SWAP1 POP PUSH2 0x58B PUSH1 0x0 DUP4 ADD DUP5 PUSH2 0x567 JUMP JUMPDEST SWAP3 SWAP2 POP POP JUMP JUMPDEST PUSH32 0x4E487B7100000000000000000000000000000000000000000000000000000000 PUSH1 0x0 MSTORE PUSH1 0x22 PUSH1 0x4 MSTORE PUSH1 0x24 PUSH1 0x0 REVERT JUMPDEST PUSH1 0x0 PUSH1 0x2 DUP3 DIV SWAP1 POP PUSH1 0x1 DUP3 AND DUP1 PUSH2 0x5D8 JUMPI PUSH1 0x7F DUP3 AND SWAP2 POP JUMPDEST PUSH1 0x20 DUP3 LT DUP2 SUB PUSH2 0x5EB JUMPI PUSH2 0x5EA PUSH2 0x591 JUMP JUMPDEST JUMPDEST POP SWAP2 SWAP1 POP JUMP JUMPDEST PUSH1 0x0 DUP2 SWAP1 POP SWAP3 SWAP2 POP POP JUMP JUMPDEST PUSH1 0x0 PUSH2 0x607 DUP3 PUSH2 0x337 JUMP JUMPDEST PUSH2 0x611 DUP2 DUP6 PUSH2 0x5F1 JUMP JUMPDEST SWAP4 POP PUSH2 0x621 DUP2 DUP6 PUSH1 0x20 DUP7 ADD PUSH2 0x353 JUMP JUMPDEST DUP1 DUP5 ADD SWAP2 POP POP SWAP3 SWAP2 POP POP JUMP JUMPDEST PUSH1 0x0 PUSH2 0x639 DUP3 DUP5 PUSH2 0x5FC JUMP JUMPDEST SWAP2 POP DUP2 SWAP1 POP SWAP3 SWAP2 POP POP JUMP JUMPDEST PUSH32 0x4E487B7100000000000000000000000000000000000000000000000000000000 PUSH1 0x0 MSTORE PUSH1 0x11 PUSH1 0x4 MSTORE PUSH1 0x24 PUSH1 0x0 REVERT JUMPDEST PUSH1 0x0 PUSH2 0x67E DUP3 PUSH2 0x2D4 JUMP JUMPDEST SWAP2 POP PUSH32 0xFFFFFFFFFFFFFFFFFFFFFFFFFFFFFFFFFFFFFFFFFFFFFFFFFFFFFFFFFFFFFFFF DUP3 SUB PUSH2 0x6B0 JUMPI PUSH2 0x6AF PUSH2 0x644 JUMP JUMPDEST JUMPDEST PUSH1 0x1 DUP3 ADD SWAP1 POP SWAP2 SWAP1 POP JUMP JUMPDEST PUSH32 0x4E487B7100000000000000000000000000000000000000000000000000000000 PUSH1 0x0 MSTORE PUSH1 0x32 PUSH1 0x4 MSTORE PUSH1 0x24 PUSH1 0x0 REVERT JUMPDEST PUSH1 0x0 DUP2 SWAP1 POP SWAP3 SWAP2 POP POP JUMP JUMPDEST PUSH1 0x0 DUP2 SWAP1 POP DUP2 PUSH1 0x0 MSTORE PUSH1 0x20 PUSH1 0x0 KECCAK256 SWAP1 POP SWAP2 SWAP1 POP JUMP JUMPDEST PUSH1 0x0 DUP2 SLOAD PUSH2 0x717 DUP2 PUSH2 0x5C0 JUMP JUMPDEST PUSH2 0x721 DUP2 DUP7 PUSH2 0x6EA JUMP JUMPDEST SWAP5 POP PUSH1 0x1 DUP3 AND PUSH1 0x0 DUP2 EQ PUSH2 0x73C JUMPI PUSH1 0x1 DUP2 EQ PUSH2 0x751 JUMPI PUSH2 0x784 JUMP JUMPDEST PUSH1 0xFF NOT DUP4 AND DUP7 MSTORE DUP2 ISZERO ISZERO DUP3 MUL DUP7 ADD SWAP4 POP PUSH2 0x784 JUMP JUMPDEST PUSH2 0x75A DUP6 PUSH2 0x6F5 JUMP JUMPDEST PUSH1 0x0 JUMPDEST DUP4 DUP2 LT ISZERO PUSH2 0x77C JUMPI DUP2 SLOAD DUP2 DUP10 ADD MSTORE PUSH1 0x1 DUP3 ADD SWAP2 POP PUSH1 0x20 DUP2 ADD SWAP1 POP PUSH2 0x75D JUMP JUMPDEST DUP4 DUP9 ADD SWAP6 POP POP POP JUMPDEST POP POP POP SWAP3 SWAP2 POP POP JUMP JUMPDEST PUSH1 0x0 PUSH2 0x799 DUP3 DUP5 PUSH2 0x70A JUMP JUMPDEST SWAP2 POP DUP2 SWAP1 POP SWAP3 SWAP2 POP POP JUMP INVALID LOG2 PUSH5 0x6970667358 0x22 SLT KECCAK256 SHR LOG3 MCOPY DIV 0xB6 PUSH24 0x1E0C8834C07765B0EE6AF9341AF46144B7168451B52C8E92 PUSH21 0xE064736F6C634300081C0033000000000000000000 "
        },
        "methodIdentifiers": {
          "candidates(uint256)": "3477ee2e",
          "vote(string)": "fc36e15b",
          "votes(string)": "b99ef1fa"
        }
      }
    }
  }
}